{
  "_format": "hh-sol-artifact-1",
  "contractName": "QuickPay",
  "sourceName": "contracts/QuickPay.sol",
  "abi": [
    {
      "inputs": [
        {
          "internalType": "address",
          "name": "_registryAddress",
          "type": "address"
        }
      ],
      "stateMutability": "nonpayable",
      "type": "constructor"
    },
    {
      "anonymous": false,
      "inputs": [
        {
          "indexed": true,
          "internalType": "address",
          "name": "from",
          "type": "address"
        },
        {
          "indexed": false,
          "internalType": "string",
          "name": "toUsername",
          "type": "string"
        },
        {
          "indexed": false,
          "internalType": "uint256",
          "name": "amount",
          "type": "uint256"
        },
        {
          "indexed": false,
          "internalType": "string",
          "name": "reason",
          "type": "string"
        }
      ],
      "name": "PaymentFailed",
      "type": "event"
    },
    {
      "anonymous": false,
      "inputs": [
        {
          "indexed": true,
          "internalType": "address",
          "name": "from",
          "type": "address"
        },
        {
          "indexed": true,
          "internalType": "address",
          "name": "to",
          "type": "address"
        },
        {
          "indexed": false,
          "internalType": "uint256",
          "name": "amount",
          "type": "uint256"
        },
        {
          "indexed": false,
          "internalType": "string",
          "name": "message",
          "type": "string"
        }
      ],
      "name": "PaymentSent",
      "type": "event"
    },
    {
      "stateMutability": "payable",
      "type": "fallback"
    },
    {
      "inputs": [],
      "name": "getContractBalance",
      "outputs": [
        {
          "internalType": "uint256",
          "name": "",
          "type": "uint256"
        }
      ],
      "stateMutability": "view",
      "type": "function"
    },
    {
      "inputs": [
        {
          "internalType": "string",
          "name": "username",
          "type": "string"
        },
        {
          "internalType": "string",
          "name": "message",
          "type": "string"
        }
      ],
      "name": "sendPaymentByUsername",
      "outputs": [],
      "stateMutability": "payable",
      "type": "function"
    },
    {
      "stateMutability": "payable",
      "type": "receive"
    }
  ],
  "bytecode": "0x608060405234801561001057600080fd5b50604051610b92380380610b928339818101604052810190610032919061014a565b600073ffffffffffffffffffffffffffffffffffffffff168173ffffffffffffffffffffffffffffffffffffffff16036100a1576040517f08c379a0000000000000000000000000000000000000000000000000000000008152600401610098906101d4565b60405180910390fd5b806000806101000a81548173ffffffffffffffffffffffffffffffffffffffff021916908373ffffffffffffffffffffffffffffffffffffffff160217905550506101f4565b600080fd5b600073ffffffffffffffffffffffffffffffffffffffff82169050919050565b6000610117826100ec565b9050919050565b6101278161010c565b811461013257600080fd5b50565b6000815190506101448161011e565b92915050565b6000602082840312156101605761015f6100e7565b5b600061016e84828501610135565b91505092915050565b600082825260208201905092915050565b7f496e76616c696420726567697374727920616464726573730000000000000000600082015250565b60006101be601883610177565b91506101c982610188565b602082019050919050565b600060208201905081810360008301526101ed816101b1565b9050919050565b61098f806102036000396000f3fe60806040526004361061002d5760003560e01c80636f9fb98a1461003657806391db8bb01461006157610034565b3661003457005b005b34801561004257600080fd5b5061004b61007d565b60405161005891906103d1565b60405180910390f35b61007b60048036038101906100769190610546565b610085565b005b600047905090565b600034116100c8576040517f08c379a00000000000000000000000000000000000000000000000000000000081526004016100bf90610641565b60405180910390fd5b60008060009054906101000a900473ffffffffffffffffffffffffffffffffffffffff1673ffffffffffffffffffffffffffffffffffffffff16636322961d846040518263ffffffff1660e01b815260040161012491906106cf565b602060405180830381865afa158015610141573d6000803e3d6000fd5b505050506040513d601f19601f82011682018060405250810190610165919061074f565b9050600073ffffffffffffffffffffffffffffffffffffffff168173ffffffffffffffffffffffffffffffffffffffff16036101d6576040517f08c379a00000000000000000000000000000000000000000000000000000000081526004016101cd906107c8565b60405180910390fd5b60008173ffffffffffffffffffffffffffffffffffffffff16346040516101fc90610819565b60006040518083038185875af1925050503d8060008114610239576040519150601f19603f3d011682016040523d82523d6000602084013e61023e565b606091505b5050905080156102b4578173ffffffffffffffffffffffffffffffffffffffff163373ffffffffffffffffffffffffffffffffffffffff167fb1010776ed854d1e940d4ef133f9fa76da17f3a4080ee1f9e7d98f62b951639434866040516102a792919061082e565b60405180910390a36103b2565b3373ffffffffffffffffffffffffffffffffffffffff167fc81323f154c6ebcaba921819b9296828e6748acf1cc372ecb4e5e1d76408d96e85346040516102fc9291906108aa565b60405180910390a260003373ffffffffffffffffffffffffffffffffffffffff163460405161032a90610819565b60006040518083038185875af1925050503d8060008114610367576040519150601f19603f3d011682016040523d82523d6000602084013e61036c565b606091505b50509050806103b0576040517f08c379a00000000000000000000000000000000000000000000000000000000081526004016103a790610939565b60405180910390fd5b505b50505050565b6000819050919050565b6103cb816103b8565b82525050565b60006020820190506103e660008301846103c2565b92915050565b6000604051905090565b600080fd5b600080fd5b600080fd5b600080fd5b6000601f19601f8301169050919050565b7f4e487b7100000000000000000000000000000000000000000000000000000000600052604160045260246000fd5b6104538261040a565b810181811067ffffffffffffffff821117156104725761047161041b565b5b80604052505050565b60006104856103ec565b9050610491828261044a565b919050565b600067ffffffffffffffff8211156104b1576104b061041b565b5b6104ba8261040a565b9050602081019050919050565b82818337600083830152505050565b60006104e96104e484610496565b61047b565b90508281526020810184848401111561050557610504610405565b5b6105108482856104c7565b509392505050565b600082601f83011261052d5761052c610400565b5b813561053d8482602086016104d6565b91505092915050565b6000806040838503121561055d5761055c6103f6565b5b600083013567ffffffffffffffff81111561057b5761057a6103fb565b5b61058785828601610518565b925050602083013567ffffffffffffffff8111156105a8576105a76103fb565b5b6105b485828601610518565b9150509250929050565b600082825260208201905092915050565b7f5061796d656e7420616d6f756e74206d7573742062652067726561746572207460008201527f68616e2030000000000000000000000000000000000000000000000000000000602082015250565b600061062b6025836105be565b9150610636826105cf565b604082019050919050565b6000602082019050818103600083015261065a8161061e565b9050919050565b600081519050919050565b60005b8381101561068a57808201518184015260208101905061066f565b60008484015250505050565b60006106a182610661565b6106ab81856105be565b93506106bb81856020860161066c565b6106c48161040a565b840191505092915050565b600060208201905081810360008301526106e98184610696565b905092915050565b600073ffffffffffffffffffffffffffffffffffffffff82169050919050565b600061071c826106f1565b9050919050565b61072c81610711565b811461073757600080fd5b50565b60008151905061074981610723565b92915050565b600060208284031215610765576107646103f6565b5b60006107738482850161073a565b91505092915050565b7f557365726e616d65206e6f742072656769737465726564000000000000000000600082015250565b60006107b26017836105be565b91506107bd8261077c565b602082019050919050565b600060208201905081810360008301526107e1816107a5565b9050919050565b600081905092915050565b50565b60006108036000836107e8565b915061080e826107f3565b600082019050919050565b6000610824826107f6565b9150819050919050565b600060408201905061084360008301856103c2565b81810360208301526108558184610696565b90509392505050565b7f5472616e73666572206661696c65640000000000000000000000000000000000600082015250565b6000610894600f836105be565b915061089f8261085e565b602082019050919050565b600060608201905081810360008301526108c48185610696565b90506108d360208301846103c2565b81810360408301526108e481610887565b90509392505050565b7f526566756e64206661696c656400000000000000000000000000000000000000600082015250565b6000610923600d836105be565b915061092e826108ed565b602082019050919050565b6000602082019050818103600083015261095281610916565b905091905056fea264697066735822122071c3a4f0fe2049998bc81d3b29e6a09167d25d6ec9996e956d4b0fa06c44cfc764736f6c63430008140033",
  "linkReferences": {},
  "deployedLinkReferences": {}
}