{
  "_format": "hh-sol-artifact-1",
  "contractName": "UsernameRegistry",
  "sourceName": "contracts/UsernameRegistry.sol",
  "abi": [
    {
      "anonymous": false,
      "inputs": [
        {
          "indexed": false,
          "internalType": "string",
          "name": "username",
          "type": "string"
        },
        {
          "indexed": true,
          "internalType": "address",
          "name": "wallet",
          "type": "address"
        }
      ],
      "name": "UsernameRegistered",
      "type": "event"
    },
    {
      "anonymous": false,
      "inputs": [
        {
          "indexed": false,
          "internalType": "string",
          "name": "username",
          "type": "string"
        },
        {
          "indexed": true,
          "internalType": "address",
          "name": "wallet",
          "type": "address"
        }
      ],
      "name": "UsernameRemoved",
      "type": "event"
    },
    {
      "anonymous": false,
      "inputs": [
        {
          "indexed": false,
          "internalType": "string",
          "name": "username",
          "type": "string"
        },
        {
          "indexed": true,
          "internalType": "address",
          "name": "oldWallet",
          "type": "address"
        },
        {
          "indexed": true,
          "internalType": "address",
          "name": "newWallet",
          "type": "address"
        }
      ],
      "name": "UsernameUpdated",
      "type": "event"
    },
    {
      "inputs": [
        {
          "internalType": "string",
          "name": "username",
          "type": "string"
        }
      ],
      "name": "getAddressByUsername",
      "outputs": [
        {
          "internalType": "address",
          "name": "",
          "type": "address"
        }
      ],
      "stateMutability": "view",
      "type": "function"
    },
    {
      "inputs": [
        {
          "internalType": "address",
          "name": "wallet",
          "type": "address"
        }
      ],
      "name": "getUsernameByAddress",
      "outputs": [
        {
          "internalType": "string",
          "name": "",
          "type": "string"
        }
      ],
      "stateMutability": "view",
      "type": "function"
    },
    {
      "inputs": [
        {
          "internalType": "string",
          "name": "username",
          "type": "string"
        }
      ],
      "name": "isUsernameRegistered",
      "outputs": [
        {
          "internalType": "bool",
          "name": "",
          "type": "bool"
        }
      ],
      "stateMutability": "view",
      "type": "function"
    },
    {
      "inputs": [
        {
          "internalType": "string",
          "name": "username",
          "type": "string"
        }
      ],
      "name": "registerUsername",
      "outputs": [],
      "stateMutability": "nonpayable",
      "type": "function"
    },
    {
      "inputs": [
        {
          "internalType": "string",
          "name": "username",
          "type": "string"
        }
      ],
      "name": "removeUsername",
      "outputs": [],
      "stateMutability": "nonpayable",
      "type": "function"
    },
    {
      "inputs": [
        {
          "internalType": "string",
          "name": "username",
          "type": "string"
        },
        {
          "internalType": "address",
          "name": "newAddress",
          "type": "address"
        }
      ],
      "name": "updateUsernameAddress",
      "outputs": [],
      "stateMutability": "nonpayable",
      "type": "function"
    }
  ],
  "bytecode": "0x608060405234801561001057600080fd5b50611529806100206000396000f3fe608060405234801561001057600080fd5b50600436106100625760003560e01c806336a941341461006757806352ac2091146100835780636322961d146100b3578063d421d09b146100e3578063e2a7e178146100ff578063ed1a998d1461011b575b600080fd5b610081600480360381019061007c9190610c21565b61014b565b005b61009d60048036038101906100989190610c21565b6103c5565b6040516100aa9190610c85565b60405180910390f35b6100cd60048036038101906100c89190610c21565b61043c565b6040516100da9190610ce1565b60405180910390f35b6100fd60048036038101906100f89190610c21565b610483565b005b61011960048036038101906101149190610d28565b61064f565b005b61013560048036038101906101309190610d84565b610999565b6040516101429190610e30565b60405180910390f35b600081511161018f576040517f08c379a000000000000000000000000000000000000000000000000000000000815260040161018690610e9e565b60405180910390fd5b600073ffffffffffffffffffffffffffffffffffffffff166000826040516101b79190610efa565b908152602001604051809103902060009054906101000a900473ffffffffffffffffffffffffffffffffffffffff1673ffffffffffffffffffffffffffffffffffffffff161461023c576040517f08c379a000000000000000000000000000000000000000000000000000000000815260040161023390610f5d565b60405180910390fd5b6000600160003373ffffffffffffffffffffffffffffffffffffffff1673ffffffffffffffffffffffffffffffffffffffff168152602001908152602001600020805461028890610fac565b9050146102ca576040517f08c379a00000000000000000000000000000000000000000000000000000000081526004016102c190611029565b60405180910390fd5b336000826040516102db9190610efa565b908152602001604051809103902060006101000a81548173ffffffffffffffffffffffffffffffffffffffff021916908373ffffffffffffffffffffffffffffffffffffffff16021790555080600160003373ffffffffffffffffffffffffffffffffffffffff1673ffffffffffffffffffffffffffffffffffffffff168152602001908152602001600020908161037391906111ff565b503373ffffffffffffffffffffffffffffffffffffffff167f928747cd3b0fd842c3278d01d3cd835c3bb83de390e88933021fa6657be6312f826040516103ba9190610e30565b60405180910390a250565b60008073ffffffffffffffffffffffffffffffffffffffff166000836040516103ee9190610efa565b908152602001604051809103902060009054906101000a900473ffffffffffffffffffffffffffffffffffffffff1673ffffffffffffffffffffffffffffffffffffffff1614159050919050565b6000808260405161044d9190610efa565b908152602001604051809103902060009054906101000a900473ffffffffffffffffffffffffffffffffffffffff169050919050565b3373ffffffffffffffffffffffffffffffffffffffff166000826040516104aa9190610efa565b908152602001604051809103902060009054906101000a900473ffffffffffffffffffffffffffffffffffffffff1673ffffffffffffffffffffffffffffffffffffffff161461052f576040517f08c379a000000000000000000000000000000000000000000000000000000000815260040161052690611343565b60405180910390fd5b600080826040516105409190610efa565b908152602001604051809103902060009054906101000a900473ffffffffffffffffffffffffffffffffffffffff1690506000826040516105819190610efa565b908152602001604051809103902060006101000a81549073ffffffffffffffffffffffffffffffffffffffff0219169055600160008273ffffffffffffffffffffffffffffffffffffffff1673ffffffffffffffffffffffffffffffffffffffff16815260200190815260200160002060006105fd9190610a6a565b8073ffffffffffffffffffffffffffffffffffffffff167fe8f835a1ac99a1d93e427e9af0bf118155f7679af5c3a1b0901efe2ab6fa08f8836040516106439190610e30565b60405180910390a25050565b3373ffffffffffffffffffffffffffffffffffffffff166000836040516106769190610efa565b908152602001604051809103902060009054906101000a900473ffffffffffffffffffffffffffffffffffffffff1673ffffffffffffffffffffffffffffffffffffffff16146106fb576040517f08c379a00000000000000000000000000000000000000000000000000000000081526004016106f2906113d5565b60405180910390fd5b600073ffffffffffffffffffffffffffffffffffffffff168173ffffffffffffffffffffffffffffffffffffffff160361076a576040517f08c379a000000000000000000000000000000000000000000000000000000000815260040161076190611441565b60405180910390fd5b6000600160008373ffffffffffffffffffffffffffffffffffffffff1673ffffffffffffffffffffffffffffffffffffffff16815260200190815260200160002080546107b690610fac565b9050146107f8576040517f08c379a00000000000000000000000000000000000000000000000000000000081526004016107ef906114d3565b60405180910390fd5b600080836040516108099190610efa565b908152602001604051809103902060009054906101000a900473ffffffffffffffffffffffffffffffffffffffff169050600160008273ffffffffffffffffffffffffffffffffffffffff1673ffffffffffffffffffffffffffffffffffffffff16815260200190815260200160002060006108859190610a6a565b816000846040516108969190610efa565b908152602001604051809103902060006101000a81548173ffffffffffffffffffffffffffffffffffffffff021916908373ffffffffffffffffffffffffffffffffffffffff16021790555082600160008473ffffffffffffffffffffffffffffffffffffffff1673ffffffffffffffffffffffffffffffffffffffff168152602001908152602001600020908161092e91906111ff565b508173ffffffffffffffffffffffffffffffffffffffff168173ffffffffffffffffffffffffffffffffffffffff167fad0058685cf9bfe6a208561d356418fea00f46460cab1f3b38d42e34a5b8d4048560405161098c9190610e30565b60405180910390a3505050565b6060600160008373ffffffffffffffffffffffffffffffffffffffff1673ffffffffffffffffffffffffffffffffffffffff16815260200190815260200160002080546109e590610fac565b80601f0160208091040260200160405190810160405280929190818152602001828054610a1190610fac565b8015610a5e5780601f10610a3357610100808354040283529160200191610a5e565b820191906000526020600020905b815481529060010190602001808311610a4157829003601f168201915b50505050509050919050565b508054610a7690610fac565b6000825580601f10610a885750610aa7565b601f016020900490600052602060002090810190610aa69190610aaa565b5b50565b5b80821115610ac3576000816000905550600101610aab565b5090565b6000604051905090565b600080fd5b600080fd5b600080fd5b600080fd5b6000601f19601f8301169050919050565b7f4e487b7100000000000000000000000000000000000000000000000000000000600052604160045260246000fd5b610b2e82610ae5565b810181811067ffffffffffffffff82111715610b4d57610b4c610af6565b5b80604052505050565b6000610b60610ac7565b9050610b6c8282610b25565b919050565b600067ffffffffffffffff821115610b8c57610b8b610af6565b5b610b9582610ae5565b9050602081019050919050565b82818337600083830152505050565b6000610bc4610bbf84610b71565b610b56565b905082815260208101848484011115610be057610bdf610ae0565b5b610beb848285610ba2565b509392505050565b600082601f830112610c0857610c07610adb565b5b8135610c18848260208601610bb1565b91505092915050565b600060208284031215610c3757610c36610ad1565b5b600082013567ffffffffffffffff811115610c5557610c54610ad6565b5b610c6184828501610bf3565b91505092915050565b60008115159050919050565b610c7f81610c6a565b82525050565b6000602082019050610c9a6000830184610c76565b92915050565b600073ffffffffffffffffffffffffffffffffffffffff82169050919050565b6000610ccb82610ca0565b9050919050565b610cdb81610cc0565b82525050565b6000602082019050610cf66000830184610cd2565b92915050565b610d0581610cc0565b8114610d1057600080fd5b50565b600081359050610d2281610cfc565b92915050565b60008060408385031215610d3f57610d3e610ad1565b5b600083013567ffffffffffffffff811115610d5d57610d5c610ad6565b5b610d6985828601610bf3565b9250506020610d7a85828601610d13565b9150509250929050565b600060208284031215610d9a57610d99610ad1565b5b6000610da884828501610d13565b91505092915050565b600081519050919050565b600082825260208201905092915050565b60005b83811015610deb578082015181840152602081019050610dd0565b60008484015250505050565b6000610e0282610db1565b610e0c8185610dbc565b9350610e1c818560208601610dcd565b610e2581610ae5565b840191505092915050565b60006020820190508181036000830152610e4a8184610df7565b905092915050565b7f557365726e616d652063616e6e6f7420626520656d7074790000000000000000600082015250565b6000610e88601883610dbc565b9150610e9382610e52565b602082019050919050565b60006020820190508181036000830152610eb781610e7b565b9050919050565b600081905092915050565b6000610ed482610db1565b610ede8185610ebe565b9350610eee818560208601610dcd565b80840191505092915050565b6000610f068284610ec9565b915081905092915050565b7f557365726e616d6520616c726561647920726567697374657265640000000000600082015250565b6000610f47601b83610dbc565b9150610f5282610f11565b602082019050919050565b60006020820190508181036000830152610f7681610f3a565b9050919050565b7f4e487b7100000000000000000000000000000000000000000000000000000000600052602260045260246000fd5b60006002820490506001821680610fc457607f821691505b602082108103610fd757610fd6610f7d565b5b50919050565b7f4164647265737320616c726561647920686173206120757365726e616d650000600082015250565b6000611013601e83610dbc565b915061101e82610fdd565b602082019050919050565b6000602082019050818103600083015261104281611006565b9050919050565b60008190508160005260206000209050919050565b60006020601f8301049050919050565b600082821b905092915050565b6000600883026110ab7fffffffffffffffffffffffffffffffffffffffffffffffffffffffffffffffff8261106e565b6110b5868361106e565b95508019841693508086168417925050509392505050565b6000819050919050565b6000819050919050565b60006110fc6110f76110f2846110cd565b6110d7565b6110cd565b9050919050565b6000819050919050565b611116836110e1565b61112a61112282611103565b84845461107b565b825550505050565b600090565b61113f611132565b61114a81848461110d565b505050565b5b8181101561116e57611163600082611137565b600181019050611150565b5050565b601f8211156111b35761118481611049565b61118d8461105e565b8101602085101561119c578190505b6111b06111a88561105e565b83018261114f565b50505b505050565b600082821c905092915050565b60006111d6600019846008026111b8565b1980831691505092915050565b60006111ef83836111c5565b9150826002028217905092915050565b61120882610db1565b67ffffffffffffffff81111561122157611220610af6565b5b61122b8254610fac565b611236828285611172565b600060209050601f8311600181146112695760008415611257578287015190505b61126185826111e3565b8655506112c9565b601f19841661127786611049565b60005b8281101561129f5784890151825560018201915060208501945060208101905061127a565b868310156112bc57848901516112b8601f8916826111c5565b8355505b6001600288020188555050505b505050505050565b7f4e6f7420617574686f72697a656420746f2072656d6f7665207468697320757360008201527f65726e616d650000000000000000000000000000000000000000000000000000602082015250565b600061132d602683610dbc565b9150611338826112d1565b604082019050919050565b6000602082019050818103600083015261135c81611320565b9050919050565b7f4e6f7420617574686f72697a656420746f20757064617465207468697320757360008201527f65726e616d650000000000000000000000000000000000000000000000000000602082015250565b60006113bf602683610dbc565b91506113ca82611363565b604082019050919050565b600060208201905081810360008301526113ee816113b2565b9050919050565b7f43616e6e6f742073657420746f207a65726f2061646472657373000000000000600082015250565b600061142b601a83610dbc565b9150611436826113f5565b602082019050919050565b6000602082019050818103600083015261145a8161141e565b9050919050565b7f4e6577206164647265737320616c726561647920686173206120757365726e6160008201527f6d65000000000000000000000000000000000000000000000000000000000000602082015250565b60006114bd602283610dbc565b91506114c882611461565b604082019050919050565b600060208201905081810360008301526114ec816114b0565b905091905056fea26469706673582212205a056a632a0c22780a231d7b5f7ab4fa2e7de5c956c40605dfde393eba59c5bd64736f6c63430008140033",
  "linkReferences": {},
  "deployedLinkReferences": {}
}